{
  "_format": "hh-sol-artifact-1",
  "contractName": "NFTMarketplace",
  "sourceName": "contracts/NFTMarketplace.sol",
  "abi": [
    {
      "inputs": [],
      "stateMutability": "nonpayable",
      "type": "constructor"
    },
    {
      "anonymous": false,
      "inputs": [
        {
          "indexed": true,
          "internalType": "uint256",
          "name": "itemId",
          "type": "uint256"
        },
        {
          "indexed": true,
          "internalType": "address",
          "name": "nftContract",
          "type": "address"
        },
        {
          "indexed": true,
          "internalType": "uint256",
          "name": "tokenId",
          "type": "uint256"
        },
        {
          "indexed": false,
          "internalType": "address payable",
          "name": "seller",
          "type": "address"
        },
        {
          "indexed": false,
          "internalType": "address payable",
          "name": "owner",
          "type": "address"
        },
        {
          "indexed": false,
          "internalType": "uint256",
          "name": "price",
          "type": "uint256"
        },
        {
          "indexed": false,
          "internalType": "bool",
          "name": "sold",
          "type": "bool"
        }
      ],
      "name": "MarketItemCreated",
      "type": "event"
    },
    {
      "inputs": [
        {
          "internalType": "address",
          "name": "nftContract",
          "type": "address"
        },
        {
          "internalType": "uint256",
          "name": "tokenId",
          "type": "uint256"
        },
        {
          "internalType": "uint256",
          "name": "price",
          "type": "uint256"
        }
      ],
      "name": "createMarketItem",
      "outputs": [],
      "stateMutability": "payable",
      "type": "function"
    },
    {
      "inputs": [
        {
          "internalType": "address",
          "name": "nftContract",
          "type": "address"
        },
        {
          "internalType": "uint256",
          "name": "itemId",
          "type": "uint256"
        }
      ],
      "name": "createMarketSale",
      "outputs": [],
      "stateMutability": "payable",
      "type": "function"
    },
    {
      "inputs": [],
      "name": "fetchItemsCreated",
      "outputs": [
        {
          "components": [
            {
              "internalType": "uint256",
              "name": "itemId",
              "type": "uint256"
            },
            {
              "internalType": "address",
              "name": "nftContract",
              "type": "address"
            },
            {
              "internalType": "uint256",
              "name": "tokenId",
              "type": "uint256"
            },
            {
              "internalType": "address payable",
              "name": "seller",
              "type": "address"
            },
            {
              "internalType": "address payable",
              "name": "owner",
              "type": "address"
            },
            {
              "internalType": "uint256",
              "name": "price",
              "type": "uint256"
            },
            {
              "internalType": "bool",
              "name": "sold",
              "type": "bool"
            }
          ],
          "internalType": "struct NFTMarketplace.MarketItem[]",
          "name": "",
          "type": "tuple[]"
        }
      ],
      "stateMutability": "view",
      "type": "function"
    },
    {
      "inputs": [],
      "name": "fetchMarketItems",
      "outputs": [
        {
          "components": [
            {
              "internalType": "uint256",
              "name": "itemId",
              "type": "uint256"
            },
            {
              "internalType": "address",
              "name": "nftContract",
              "type": "address"
            },
            {
              "internalType": "uint256",
              "name": "tokenId",
              "type": "uint256"
            },
            {
              "internalType": "address payable",
              "name": "seller",
              "type": "address"
            },
            {
              "internalType": "address payable",
              "name": "owner",
              "type": "address"
            },
            {
              "internalType": "uint256",
              "name": "price",
              "type": "uint256"
            },
            {
              "internalType": "bool",
              "name": "sold",
              "type": "bool"
            }
          ],
          "internalType": "struct NFTMarketplace.MarketItem[]",
          "name": "",
          "type": "tuple[]"
        }
      ],
      "stateMutability": "view",
      "type": "function"
    },
    {
      "inputs": [],
      "name": "fetchMyNFTs",
      "outputs": [
        {
          "components": [
            {
              "internalType": "uint256",
              "name": "itemId",
              "type": "uint256"
            },
            {
              "internalType": "address",
              "name": "nftContract",
              "type": "address"
            },
            {
              "internalType": "uint256",
              "name": "tokenId",
              "type": "uint256"
            },
            {
              "internalType": "address payable",
              "name": "seller",
              "type": "address"
            },
            {
              "internalType": "address payable",
              "name": "owner",
              "type": "address"
            },
            {
              "internalType": "uint256",
              "name": "price",
              "type": "uint256"
            },
            {
              "internalType": "bool",
              "name": "sold",
              "type": "bool"
            }
          ],
          "internalType": "struct NFTMarketplace.MarketItem[]",
          "name": "",
          "type": "tuple[]"
        }
      ],
      "stateMutability": "view",
      "type": "function"
    },
    {
      "inputs": [],
      "name": "getListingPrice",
      "outputs": [
        {
          "internalType": "uint256",
          "name": "",
          "type": "uint256"
        }
      ],
      "stateMutability": "view",
      "type": "function"
    },
    {
      "inputs": [
        {
          "internalType": "uint256",
          "name": "_listingPrice",
          "type": "uint256"
        }
      ],
      "name": "updateListingPrice",
      "outputs": [],
      "stateMutability": "payable",
      "type": "function"
    }
  ],
  "bytecode": "0x60806040526658d15e1762800060035534801561001b57600080fd5b50600160008190555033600460006101000a81548173ffffffffffffffffffffffffffffffffffffffff021916908373ffffffffffffffffffffffffffffffffffffffff160217905550611b12806100746000396000f3fe6080604052600436106100705760003560e01c806358eb2df51161004e57806358eb2df5146100f6578063ae677aa314610112578063c23b139e1461012e578063f064c32e1461014a57610070565b80630f08efe01461007557806312e85585146100a0578063202e3740146100cb575b600080fd5b34801561008157600080fd5b5061008a610175565b60405161009791906116ec565b60405180910390f35b3480156100ac57600080fd5b506100b56104a1565b6040516100c291906117ae565b60405180910390f35b3480156100d757600080fd5b506100e06104ab565b6040516100ed91906116ec565b60405180910390f35b610110600480360381019061010b91906113cd565b61085b565b005b61012c6004803603810190610127919061141c565b610bbf565b005b61014860048036038101906101439190611391565b610c59565b005b34801561015657600080fd5b5061015f610f12565b60405161016c91906116ec565b60405180910390f35b6060600061018360016112c2565b9050600061019160026112c2565b61019b60016112c2565b6101a59190611869565b90506000808267ffffffffffffffff8111156101ea577f4e487b7100000000000000000000000000000000000000000000000000000000600052604160045260246000fd5b60405190808252806020026020018201604052801561022357816020015b6102106112e6565b8152602001906001900390816102085790505b50905060005b8481101561049657600073ffffffffffffffffffffffffffffffffffffffff166005600060018461025a9190611813565b815260200190815260200160002060040160009054906101000a900473ffffffffffffffffffffffffffffffffffffffff1673ffffffffffffffffffffffffffffffffffffffff161415610483576000600560006001846102bb9190611813565b81526020019081526020016000206000015490506000600560008381526020019081526020016000209050806040518060e0016040529081600082015481526020016001820160009054906101000a900473ffffffffffffffffffffffffffffffffffffffff1673ffffffffffffffffffffffffffffffffffffffff1673ffffffffffffffffffffffffffffffffffffffff168152602001600282015481526020016003820160009054906101000a900473ffffffffffffffffffffffffffffffffffffffff1673ffffffffffffffffffffffffffffffffffffffff1673ffffffffffffffffffffffffffffffffffffffff1681526020016004820160009054906101000a900473ffffffffffffffffffffffffffffffffffffffff1673ffffffffffffffffffffffffffffffffffffffff1673ffffffffffffffffffffffffffffffffffffffff168152602001600582015481526020016006820160009054906101000a900460ff161515151581525050848681518110610466577f4e487b7100000000000000000000000000000000000000000000000000000000600052603260045260246000fd5b602002602001018190525060018561047e9190611813565b945050505b808061048e906118f7565b915050610229565b508094505050505090565b6000600354905090565b606060006104b960016112c2565b905060008060005b83811015610562573373ffffffffffffffffffffffffffffffffffffffff16600560006001846104f19190611813565b815260200190815260200160002060040160009054906101000a900473ffffffffffffffffffffffffffffffffffffffff1673ffffffffffffffffffffffffffffffffffffffff16141561054f5760018361054c9190611813565b92505b808061055a906118f7565b9150506104c1565b5060008267ffffffffffffffff8111156105a5577f4e487b7100000000000000000000000000000000000000000000000000000000600052604160045260246000fd5b6040519080825280602002602001820160405280156105de57816020015b6105cb6112e6565b8152602001906001900390816105c35790505b50905060005b84811015610850573373ffffffffffffffffffffffffffffffffffffffff16600560006001846106149190611813565b815260200190815260200160002060040160009054906101000a900473ffffffffffffffffffffffffffffffffffffffff1673ffffffffffffffffffffffffffffffffffffffff16141561083d576000600560006001846106759190611813565b81526020019081526020016000206000015490506000600560008381526020019081526020016000209050806040518060e0016040529081600082015481526020016001820160009054906101000a900473ffffffffffffffffffffffffffffffffffffffff1673ffffffffffffffffffffffffffffffffffffffff1673ffffffffffffffffffffffffffffffffffffffff168152602001600282015481526020016003820160009054906101000a900473ffffffffffffffffffffffffffffffffffffffff1673ffffffffffffffffffffffffffffffffffffffff1673ffffffffffffffffffffffffffffffffffffffff1681526020016004820160009054906101000a900473ffffffffffffffffffffffffffffffffffffffff1673ffffffffffffffffffffffffffffffffffffffff1673ffffffffffffffffffffffffffffffffffffffff168152602001600582015481526020016006820160009054906101000a900460ff161515151581525050848681518110610820577f4e487b7100000000000000000000000000000000000000000000000000000000600052603260045260246000fd5b60200260200101819052506001856108389190611813565b945050505b8080610848906118f7565b9150506105e4565b508094505050505090565b600260005414156108a1576040517f08c379a00000000000000000000000000000000000000000000000000000000081526004016108989061176e565b60405180910390fd5b6002600081905550600081116108ec576040517f08c379a00000000000000000000000000000000000000000000000000000000081526004016108e39061178e565b60405180910390fd5b6003543414610930576040517f08c379a00000000000000000000000000000000000000000000000000000000081526004016109279061172e565b60405180910390fd5b61093a60016112d0565b600061094660016112c2565b90506040518060e001604052808281526020018573ffffffffffffffffffffffffffffffffffffffff1681526020018481526020013373ffffffffffffffffffffffffffffffffffffffff168152602001600073ffffffffffffffffffffffffffffffffffffffff16815260200183815260200160001515815250600560008581526020019081526020016000206000820151816000015560208201518160010160006101000a81548173ffffffffffffffffffffffffffffffffffffffff021916908373ffffffffffffffffffffffffffffffffffffffff1602179055506040820151816002015560608201518160030160006101000a81548173ffffffffffffffffffffffffffffffffffffffff021916908373ffffffffffffffffffffffffffffffffffffffff16021790555060808201518160040160006101000a81548173ffffffffffffffffffffffffffffffffffffffff021916908373ffffffffffffffffffffffffffffffffffffffff16021790555060a0820151816005015560c08201518160060160006101000a81548160ff0219169083151502179055509050508373ffffffffffffffffffffffffffffffffffffffff166323b872dd3330866040518463ffffffff1660e01b8152600401610b27939291906116b5565b600060405180830381600087803b158015610b4157600080fd5b505af1158015610b55573d6000803e3d6000fd5b50505050828473ffffffffffffffffffffffffffffffffffffffff16827f045dfa01dcba2b36aba1d3dc4a874f4b0c5d2fbeb8d2c4b34a7d88c8d8f929d1336000876000604051610ba99493929190611670565b60405180910390a4506001600081905550505050565b3373ffffffffffffffffffffffffffffffffffffffff16600460009054906101000a900473ffffffffffffffffffffffffffffffffffffffff1673ffffffffffffffffffffffffffffffffffffffff1614610c4f576040517f08c379a0000000000000000000000000000000000000000000000000000000008152600401610c469061174e565b60405180910390fd5b8060038190555050565b60026000541415610c9f576040517f08c379a0000000000000000000000000000000000000000000000000000000008152600401610c969061176e565b60405180910390fd5b6002600081905550600060056000838152602001908152602001600020600501549050600060056000848152602001908152602001600020600201549050813414610d1f576040517f08c379a0000000000000000000000000000000000000000000000000000000008152600401610d169061170e565b60405180910390fd5b6005600084815260200190815260200160002060030160009054906101000a900473ffffffffffffffffffffffffffffffffffffffff1673ffffffffffffffffffffffffffffffffffffffff166108fc349081150290604051600060405180830381858888f19350505050158015610d9b573d6000803e3d6000fd5b508373ffffffffffffffffffffffffffffffffffffffff166323b872dd3033846040518463ffffffff1660e01b8152600401610dd9939291906116b5565b600060405180830381600087803b158015610df357600080fd5b505af1158015610e07573d6000803e3d6000fd5b50505050336005600085815260200190815260200160002060040160006101000a81548173ffffffffffffffffffffffffffffffffffffffff021916908373ffffffffffffffffffffffffffffffffffffffff16021790555060016005600085815260200190815260200160002060060160006101000a81548160ff021916908315150217905550610e9960026112d0565b600460009054906101000a900473ffffffffffffffffffffffffffffffffffffffff1673ffffffffffffffffffffffffffffffffffffffff166108fc6003549081150290604051600060405180830381858888f19350505050158015610f03573d6000803e3d6000fd5b50505060016000819055505050565b60606000610f2060016112c2565b905060008060005b83811015610fc9573373ffffffffffffffffffffffffffffffffffffffff1660056000600184610f589190611813565b815260200190815260200160002060030160009054906101000a900473ffffffffffffffffffffffffffffffffffffffff1673ffffffffffffffffffffffffffffffffffffffff161415610fb657600183610fb39190611813565b92505b8080610fc1906118f7565b915050610f28565b5060008267ffffffffffffffff81111561100c577f4e487b7100000000000000000000000000000000000000000000000000000000600052604160045260246000fd5b60405190808252806020026020018201604052801561104557816020015b6110326112e6565b81526020019060019003908161102a5790505b50905060005b848110156112b7573373ffffffffffffffffffffffffffffffffffffffff166005600060018461107b9190611813565b815260200190815260200160002060030160009054906101000a900473ffffffffffffffffffffffffffffffffffffffff1673ffffffffffffffffffffffffffffffffffffffff1614156112a4576000600560006001846110dc9190611813565b81526020019081526020016000206000015490506000600560008381526020019081526020016000209050806040518060e0016040529081600082015481526020016001820160009054906101000a900473ffffffffffffffffffffffffffffffffffffffff1673ffffffffffffffffffffffffffffffffffffffff1673ffffffffffffffffffffffffffffffffffffffff168152602001600282015481526020016003820160009054906101000a900473ffffffffffffffffffffffffffffffffffffffff1673ffffffffffffffffffffffffffffffffffffffff1673ffffffffffffffffffffffffffffffffffffffff1681526020016004820160009054906101000a900473ffffffffffffffffffffffffffffffffffffffff1673ffffffffffffffffffffffffffffffffffffffff1673ffffffffffffffffffffffffffffffffffffffff168152602001600582015481526020016006820160009054906101000a900460ff161515151581525050848681518110611287577f4e487b7100000000000000000000000000000000000000000000000000000000600052603260045260246000fd5b602002602001018190525060018561129f9190611813565b945050505b80806112af906118f7565b91505061104b565b508094505050505090565b600081600001549050919050565b6001816000016000828254019250508190555050565b6040518060e0016040528060008152602001600073ffffffffffffffffffffffffffffffffffffffff16815260200160008152602001600073ffffffffffffffffffffffffffffffffffffffff168152602001600073ffffffffffffffffffffffffffffffffffffffff168152602001600081526020016000151581525090565b60008135905061137681611aae565b92915050565b60008135905061138b81611ac5565b92915050565b600080604083850312156113a457600080fd5b60006113b285828601611367565b92505060206113c38582860161137c565b9150509250929050565b6000806000606084860312156113e257600080fd5b60006113f086828701611367565b93505060206114018682870161137c565b92505060406114128682870161137c565b9150509250925092565b60006020828403121561142e57600080fd5b600061143c8482850161137c565b91505092915050565b600061145183836115c4565b60e08301905092915050565b611466816118af565b82525050565b611475816118af565b82525050565b6114848161189d565b82525050565b6114938161189d565b82525050565b60006114a4826117d9565b6114ae81856117f1565b93506114b9836117c9565b8060005b838110156114ea5781516114d18882611445565b97506114dc836117e4565b9250506001810190506114bd565b5085935050505092915050565b611500816118c1565b82525050565b61150f816118c1565b82525050565b6000611522604083611802565b915061152d8261196f565b604082019050919050565b6000611545602483611802565b9150611550826119be565b604082019050919050565b6000611568603083611802565b915061157382611a0d565b604082019050919050565b600061158b601f83611802565b915061159682611a5c565b602082019050919050565b60006115ae601c83611802565b91506115b982611a85565b602082019050919050565b60e0820160008201516115da6000850182611652565b5060208201516115ed602085018261147b565b5060408201516116006040850182611652565b506060820151611613606085018261145d565b506080820151611626608085018261145d565b5060a082015161163960a0850182611652565b5060c082015161164c60c08501826114f7565b50505050565b61165b816118ed565b82525050565b61166a816118ed565b82525050565b6000608082019050611685600083018761146c565b611692602083018661146c565b61169f6040830185611661565b6116ac6060830184611506565b95945050505050565b60006060820190506116ca600083018661148a565b6116d7602083018561148a565b6116e46040830184611661565b949350505050565b600060208201905081810360008301526117068184611499565b905092915050565b6000602082019050818103600083015261172781611515565b9050919050565b6000602082019050818103600083015261174781611538565b9050919050565b600060208201905081810360008301526117678161155b565b9050919050565b600060208201905081810360008301526117878161157e565b9050919050565b600060208201905081810360008301526117a7816115a1565b9050919050565b60006020820190506117c36000830184611661565b92915050565b6000819050602082019050919050565b600081519050919050565b6000602082019050919050565b600082825260208201905092915050565b600082825260208201905092915050565b600061181e826118ed565b9150611829836118ed565b9250827fffffffffffffffffffffffffffffffffffffffffffffffffffffffffffffffff0382111561185e5761185d611940565b5b828201905092915050565b6000611874826118ed565b915061187f836118ed565b92508282101561189257611891611940565b5b828203905092915050565b60006118a8826118cd565b9050919050565b60006118ba826118cd565b9050919050565b60008115159050919050565b600073ffffffffffffffffffffffffffffffffffffffff82169050919050565b6000819050919050565b6000611902826118ed565b91507fffffffffffffffffffffffffffffffffffffffffffffffffffffffffffffffff82141561193557611934611940565b5b600182019050919050565b7f4e487b7100000000000000000000000000000000000000000000000000000000600052601160045260246000fd5b7f506c65617365207375626d6974207468652061736b696e67207072696365206960008201527f6e206f7264657220746f20636f6d706c65746520746865207075726368617365602082015250565b7f5072696365206d75737420626520657175616c20746f206c697374696e67207060008201527f7269636500000000000000000000000000000000000000000000000000000000602082015250565b7f4f6e6c79206d61726b6574706c616365206f776e65722063616e20757064617460008201527f65206c697374696e672070726963652e00000000000000000000000000000000602082015250565b7f5265656e7472616e637947756172643a207265656e7472616e742063616c6c00600082015250565b7f5072696365206d757374206265206174206c6561737420312077656900000000600082015250565b611ab78161189d565b8114611ac257600080fd5b50565b611ace816118ed565b8114611ad957600080fd5b5056fea2646970667358221220c5c69ad55be39490fcdad093d3ddc385ff55294917506e009efb725d580054af64736f6c63430008040033",
  "linkReferences": {},
  "deployedLinkReferences": {}
}